:100000000C94A7000C94C4000C94C4000C94C4007D
:100010000C94C4000C94C4000C94C4000C94C40050
:100020000C94C4000C948D010C94C4000C94C40076
:100030000C94C4000C94C4000C94C4000C94C40030
:100040000C94C4000C94C4000C94C4000C94C40020
:100050000C94C40000407A10F35A00A0724E1809A4
:100060000010A5D4E80000E87648170000E40B541F
:10007000020000CA9A3B000000E1F50500008096EE
:100080009800000040420F000000A0860100000020
:10009000102700000000E8030000000064000000DA
:1000A00000000A00000000000100000000002C76A3
:1000B000D888DC674F0823DFC1DFAE59E1B1B796BE
:1000C000E5E3E453C63AE651997696E8E6C284261B
:1000D000EB898C9B62ED407C6FFCEFBC9C9F40F2F7
:1000E000BAA56FA5F490055A2AF75C936B6CF96773
:1000F0006DC11BFCE0E40D47FEF520E6B500D0ED38
:10010000902E0300943577050080841E080000209F
:100110004E0A000000C80C333333330F986E12833D
:100120001141EF8D2114893BE65516CFFEE6DB1811
:10013000D1844B381BF77C1D901DA4BBE4242032D6
:1001400084725E228100C9F124ECA1E53D271124CF
:100150001FBECFE5D8E0DEBFCDBF10E0A0E6B0E027
:10016000EAEBFDE002C005900D92AA37B107D9F77E
:1001700020E0AAE7B0E001C01D92A538B207E1F780
:100180000E9457020C94DB060C940000B099FECF3D
:10019000F89421E040E050E0BA0127C088B38260C3
:1001A00088BB0000440F551F661F771F88B38D7FE3
:1001B00088BB0000B09B04C04F5F5F4F6F4F7F4F05
:1001C0009F5F01C090E0983148F3605890E008C00C
:1001D00088B3826088BB000088B38D7F88BB9F5F37
:1001E0008091820020E0981798F32111EBCF78944A
:1001F000CB01BA0108958F929F92AF92BF92CF9296
:10020000DF92EF92FF920E94C6004B015C01609169
:100210007A0070917B0080917C0090917D000E941B
:100220009D036B017C01C501B4010E949D03A701E0
:1002300096010E94BC02FF90EF90DF90CF90BF909C
:10024000AF909F908F9008950E94FB0020917E00B8
:1002500030917F0040918000509181000E942903DD
:1002600008958130910521F481E08093820010C0CF
:100270008330910521F483E08093820009C00297C6
:1002800021F482E08093820003C081E080938200A9
:1002900088B38D7F88BB0E94C600089560937E005E
:1002A00070937F0080938000909381000895609305
:1002B0007A0070937B0080937C0090937D0008957A
:1002C0008F929F92AF92BF92CF92DF92EF92FF9266
:1002D0000F931F934A015B016801790197B3926004
:1002E00097BB98B39D7F98BB97B39E7F97BB90E0D9
:1002F0000E943101C501B4010E944E01C701B6013F
:100300000E9457011F910F91FF90EF90DF90CF90C7
:10031000BF90AF909F908F9008951F920F920FB64D
:100320000F9211248F939F9380918300909184006A
:10033000019690938400809383009F918F910F90FA
:100340000FBE0F901F90189595B39F70282F207F98
:10035000922B95BB95B39E7F95BB95B3926095BB51
:10036000000095B39D7F95BB32E43A95F1F700C04C
:1003700025B330E1839FC0011124922F9F70892BF8
:1003800085BB85B3826085BB000085B38D7F85BB4F
:1003900083EF91E00197F1F700C00000089595B355
:1003A0009F70282F207F922B95BB95B3916095BBB2
:1003B00095B3926095BB000095B39D7F95BB32E4E9
:1003C0003A95F1F700C025B330E1839FC0011124B5
:1003D000922F9F70892B85BB85B3826085BB0000FF
:1003E00085B38D7F85BB83EF91E00197F1F700C066
:1003F000000008958FEF84BB87E893E10197F1F740
:1004000000C0000082E00E94A40188E20E94A401D2
:100410008CE00E94A40186E00E94A40181E00E9479
:10042000A40183EF91E00197F1F700C00000089567
:100430000F931F93CF93DF938C01C0E0D0E003C0F4
:100440000E94CF012196F801EC0FFD1F80818111E0
:10045000F7CFDF91CF911F910F910895CF93DF9345
:10046000EA01811108C0603130F4862F8F708068F6
:100470000E94A40109C0813039F4603128F4862F2C
:100480008F70806C0E94A401CE010E941802DF913F
:10049000CF91089581E00E94A40183EF91E001973C
:1004A000F1F700C0000080E80E94A4010895CF93F6
:1004B000DF93CDB7DEB7C456D1090FB6F894DEBFCF
:1004C0000FBECDBF0E94FA010E944A0249E650E0E9
:1004D00060E080E00E942E028AB381608ABB0091B6
:1004E0006400109165002091660030916700409192
:1004F0006000509161006091620070916300809192
:1005000068000E9460010E94C6000E9424014B0105
:100510005C01CE0101967C018C0123E043E0C50122
:10052000B4010E945204D7010D900020E9F7119701
:1005300087E0E2E7F0E001900D928A95E1F7A701EC
:1005400060E081E00E942E029FE926E881E0915060
:1005500020408040E1F700C0000020E030E040E2B1
:1005600051E4C501B4010E94290418161CF481E06D
:100570008BBBC9CF1BBAC7CF5058BB27AA270E9435
:10058000D4020C94EF030E94E10338F00E94E803C8
:1005900020F039F49F3F19F426F40C94DE030EF496
:1005A000E095E7FB0C94D803E92F0E94000458F370
:1005B000BA17620773078407950720F079F4A6F548
:1005C0000C9422040EF4E0950B2EBA2FA02D0B01F3
:1005D000B90190010C01CA01A0011124FF27591B88
:1005E00099F0593F50F4503E68F11A16F040A22F8E
:1005F000232F342F4427585FF3CF469537952795FF
:10060000A795F0405395C9F77EF41F16BA0B620BFD
:10061000730B840BBAF09150A1F0FF0FBB1F661F44
:10062000771F881FC2F70EC0BA0F621F731F841F87
:1006300048F4879577956795B795F7959E3F08F0AD
:10064000B0CF9395880F08F09927EE0F979587956F
:1006500008950E943D030C94EF030E94E80358F0B4
:100660000E94E10340F029F45F3F29F00C94D80385
:1006700051110C9423040C94DE030E94000468F3CF
:100680009923B1F3552391F3951B550BBB27AA274B
:1006900062177307840738F09F5F5F4F220F331F85
:1006A000441FAA1FA9F335D00E2E3AF0E0E832D04D
:1006B00091505040E695001CCAF72BD0FE2F29D050
:1006C000660F771F881FBB1F261737074807AB0722
:1006D000B0E809F0BB0B802DBF01FF2793585F4F97
:1006E0003AF09E3F510578F00C94D8030C94230403
:1006F0005F3FE4F3983ED4F3869577956795B79579
:10070000F7959F5FC9F7880F911D9695879597F983
:100710000895E1E0660F771F881FBB1F62177307FC
:100720008407BA0720F0621B730B840BBA0BEE1F11
:1007300088F7E0950895E89409C097FB3EF49095FA
:100740008095709561957F4F8F4F9F4F9923A9F0AA
:10075000F92F96E9BB279395F69587957795679539
:10076000B795F111F8CFFAF4BB0F11F460FF1BC07D
:100770006F5F7F4F8F4F9F4F16C0882311F096E910
:1007800011C0772321F09EE8872F762F05C06623BE
:1007900071F096E8862F70E060E02AF09A95660F77
:1007A000771F881FDAF7880F9695879597F9089530
:1007B00097F99F6780E870E060E008959FEF80EC14
:1007C000089500240A9416161706180609060895B7
:1007D00000240A9412161306140605060895092E1D
:1007E0000394000C11F4882352F0BB0F40F4BF2B8C
:1007F00011F460FF04C06F5F7F4F8F4F9F4F0895CC
:1008000057FD9058440F551F59F05F3F71F04795C1
:10081000880F97FB991F61F09F3F79F087950895A6
:10082000121613061406551FF2CF4695F1DF08C0C5
:10083000161617061806991FF1CF869571056105E2
:1008400008940895E894BB2766277727CB0197F98A
:1008500008950E942E0408F48FEF0895990F000860
:10086000550FAA0BE0E8FEEF16161706E807F90782
:10087000C0F012161306E407F50798F0621B730B1D
:10088000840B950B39F40A2661F0232B242B252B9E
:1008900021F408950A2609F4A140A6958FEF811D41
:1008A000811D0895EF920F931F93CF93DF93E8017B
:1008B00047FD02C034E001C034E1042E000C550BAA
:1008C00057FF03C0519541955109E32E022F242F64
:1008D000AE010E947204CE01DF91CF911F910F9162
:1008E000EF900895A9E0B0E0E8E7F4E00C94AA06E0
:1008F0006A01122FB02E2BE3201720F0FF24F3946F
:10090000F00E02C02CE3F22E0F2D27E0AE014F5F58
:100910005F4F0E94CC05BC014981842F89708130D2
:1009200031F0E1FC06C0E0FE06C090E205C09DE2A9
:1009300003C09BE201C090E05E2D507143FF3CC0BC
:10094000911102C083E001C084E0811718F4212FC7
:10095000281B01C020E051110BC0F601822F30E2AC
:10096000882319F031938150FBCFC20ED11C20E0B7
:10097000992329F0D6019C93F60131966F01C601A7
:100980000396E2FE0AC03EE4D6013C9341E4119690
:100990004C93119712963C9306C03EE6F6013083C5
:1009A00041E641833283FC01322F40E2332309F4D4
:1009B00042C041933150FACF42FF44C0911102C06E
:1009C00083E001C084E0811718F4212F281B01C0A7
:1009D00020E051110BC0F601822F30E2882319F07C
:1009E00031938150FBCFC20ED11C20E0992329F016
:1009F000D6019C93F60131966F01C6010396E2FE83
:100A00000BC039E4D6013C933EE411963C93119718
:100A100036E412963C9307C039E6F60130833EE691
:100A2000318336E63283FC01322F40E2332319F062
:100A300041933150FBCFFC01E20FF11D10828EEF8C
:100A40009FEFA6C021E030E0911102C020E030E02D
:100A5000161617061CF4FB01319602C0E1E0F0E027
:100A60002E0F3F1FBB2021F0EB2DF0E0319602C08E
:100A7000E0E0F0E02E0F3F1FE12FF0E02E173F07E0
:100A80001CF4121B212F01C020E08E2D887159F417
:100A9000F601822F30E2882319F031938150FBCF89
:100AA000C20ED11C20E0992329F0D6019C93F601B7
:100AB00031966F0151110BC0F601822F90E388230C
:100AC00019F091938150FBCFC20ED11C20E00F2D65
:100AD000060F9A81342F307144FF03C0913309F41B
:100AE0000150101624F4093018F008E001C001E0AC
:100AF000AB0177FF02C040E050E0FB01E41BF50BC7
:100B0000A1E0B0E0AC0FBD1FEA0FFB1F8EE2A82EE4
:100B10004B01801A91080B2D10E0119501951109D8
:100B20004F3FBFEF5B0721F4D601AC9211966D01E8
:100B3000641775072CF08416950614F4818101C0A2
:100B400080E3415051093196D60111967D0140173D
:100B5000510724F0D6018C936701E2CF6417750723
:100B600039F4963320F4953319F4311101C081E33F
:100B7000F6018083F701822F90E2882319F0919388
:100B80008150FBCFF701E20FF11D108280E090E071
:100B90002996ECE00C94C606283008F027E03327AD
:100BA000DA01990F311D87FD91600096610571058D
:100BB00039F432602E5F3D9330E32A95E1F70895D2
:100BC0009F3F30F080387105610509F03C5F3C5F64
:100BD0003D93913008F08068911DDF93CF931F9370
:100BE0000F93FF92EF92192F987F9695E92F969584
:100BF0009695E90FFF27E255FF4F99273327EE24FB
:100C0000FF24A701E70105900894079428F4360F04
:100C1000E71EF81E491F511D660F771F881F991F79
:100C20000694A1F70590079428F4E70EF81E491FD3
:100C3000561FC11D770F881F991F661F0694A1F7C5
:100C40000590079428F4F80E491F561FC71FD11DA1
:100C5000880F991F661F771F0694A1F705900794C8
:100C600020F4490F561FC71FD81F990F661F771F03
:100C7000881F0694A9F784911095177041F0D695B6
:100C8000C79557954795F794E7941A95C1F7E4E50A
:100C9000F0E06894159015913591659195910590C6
:100CA0007FE27395E118F10A430B560BC90BD0098B
:100CB000C0F7E10CF11E431F561FC91FD01D7EF463
:100CC000703311F48A95E6CFE894015030F0080FA4
:100CD0000AF40027021708F4202F2395022F7A33F5
:100CE00028F079E37D932A95E9F710C07D932A9542
:100CF00089F6069497956795379517951794E11897
:100D0000F10A430B560BC90BD00998F023957E913D
:100D100073957A3308F070E37C932013B8F77E91D3
:100D200070617D9330F0839571E37D9370E32A9534
:100D3000E1F71124EF90FF900F911F91CF91DF9178
:100D4000992787FD909508952F923F924F925F9239
:100D50006F927F928F929F92AF92BF92CF92DF92CB
:100D6000EF92FF920F931F93CF93DF93CDB7DEB730
:100D7000CA1BDB0B0FB6F894DEBF0FBECDBF0994C4
:100D80002A88398848885F846E847D848C849B841B
:100D9000AA84B984C884DF80EE80FD800C811B8129
:100DA000AA81B981CE0FD11D0FB6F894DEBF0FBE58
:0A0DB000CDBFED010895F894FFCFC8
:100DBA0033D776467E0280000120576569676874DA
:0A0DCA003A00206B67202020000093
:00000001FF
