:100000000C94A7000C94C4000C94C4000C94C4007D
:100010000C94C4000C94C4000C94C4000C94C40050
:100020000C94C4000C948D010C94C4000C94C40076
:100030000C94C4000C94C4000C94C4000C94C40030
:100040000C94C4000C94C4000C94C4000C94C40020
:100050000C94C40000407A10F35A00A0724E1809A4
:100060000010A5D4E80000E87648170000E40B541F
:10007000020000CA9A3B000000E1F50500008096EE
:100080009800000040420F000000A0860100000020
:10009000102700000000E8030000000064000000DA
:1000A00000000A00000000000100000000002C76A3
:1000B000D888DC674F0823DFC1DFAE59E1B1B796BE
:1000C000E5E3E453C63AE651997696E8E6C284261B
:1000D000EB898C9B62ED407C6FFCEFBC9C9F40F2F7
:1000E000BAA56FA5F490055A2AF75C936B6CF96773
:1000F0006DC11BFCE0E40D47FEF520E6B500D0ED38
:10010000902E0300943577050080841E080000209F
:100110004E0A000000C80C333333330F986E12833D
:100120001141EF8D2114893BE65516CFFEE6DB1811
:10013000D1844B381BF77C1D901DA4BBE4242032D6
:1001400084725E228100C9F124ECA1E53D271124CF
:100150001FBECFE5D8E0DEBFCDBF10E0A0E6B0E027
:10016000E6E5F1E102C005900D92A839B107D9F793
:1001700020E0A8E9B0E001C01D92A33AB207E1F780
:100180000E9469020C94A9080C940000CB99FECF40
:10019000F89421E040E050E0BA0127C08BB38061C1
:1001A0008BBB0000440F551F661F771F8BB38F7EDC
:1001B0008BBB0000CB9B04C04F5F5F4F6F4F7F4FE7
:1001C0009F5F01C090E0983148F3605890E008C00C
:1001D0008BB380618BBB00008BB38F7E8BBB9F5F2B
:1001E0008091A00020E0981798F32111EBCF78942C
:1001F000CB01BA0108958F929F92AF92BF92CF9296
:10020000DF92EF92FF920E94C6004B015C01609169
:1002100098007091990080919A0090919B000E94A3
:1002200036056B017C01C501B4010E943605A701AA
:1002300096010E941A04FF90EF90DF90CF90BF903C
:10024000AF909F908F9008950E94FB0020919C009A
:1002500030919D0040919E0050919F000E948C041F
:1002600008958130910521F481E08093A00010C0B1
:100270008330910521F483E08093A00009C00297A8
:1002800021F482E08093A00003C081E08093A0006D
:100290008BB38F7E8BBB0E94C600089560939C0039
:1002A00070939D0080939E0090939F0008956093AB
:1002B00098007093990080939A0090939B00089502
:1002C0008F929F92AF92BF92CF92DF92EF92FF9266
:1002D0000F931F934A015B01680179019AB3906102
:1002E0009ABB9BB39F7E9BBB9AB3977F9ABB90E0D0
:1002F0000E943101C501B4010E944E01C701B6013F
:100300000E9457011F910F91FF90EF90DF90CF90C7
:10031000BF90AF909F908F9008951F920F920FB64D
:100320000F9211248F939F938091A1009091A2002E
:1003300001969093A2008093A1009F918F910F90BE
:100340000FBE0F901F90189580E487B987E886B993
:100350000895877097B1987F892B87B986B180649B
:1003600086B93699FECF84B195B1089598B39F7040
:10037000282F207F922B98BB98B39E7F98BB98B371
:10038000926098BB000098B39D7F98BB32E43A9589
:10039000F1F700C028B330E1839FC0011124922FF0
:1003A0009F70892B88BB88B3826088BB000088B3AC
:1003B0008D7F88BB83EF91E00197F1F700C00000CB
:1003C000089598B39F70282F207F922B98BB98B3E5
:1003D000916098BB98B3926098BB000098B39D7FE2
:1003E00098BB32E43A95F1F700C028B330E1839F1F
:1003F000C0011124922F9F70892B88BB88B3826023
:1004000088BB000088B38D7F88BB83EF91E00197A4
:10041000F1F700C0000008958FEF87BB87E893E1F4
:100420000197F1F700C0000082E00E94B60188E267
:100430000E94B6018CE00E94B60186E00E94B601DF
:1004400081E00E94B60183EF91E00197F1F700C0CF
:10045000000008950F931F93CF93DF938C01C0E0AA
:10046000D0E003C00E94E1012196F801EC0FFD1FCE
:1004700080818111F7CFDF91CF911F910F91089566
:10048000CF93DF93EA01811108C0603130F4862FE9
:100490008F7080680E94B60109C0813039F46031E4
:1004A00028F4862F8F70806C0E94B601CE010E94C6
:1004B0002A02DF91CF91089581E00E94B60183EF77
:1004C00091E00197F1F700C0000080E80E94B601BA
:1004D0000895CF93DF93CDB7DEB76A970FB6F89440
:1004E000DEBF0FBECDBF81B3846081BB81B38062AC
:1004F00081BB81B3806881BB84B3806284BB84B3D9
:10050000806484BB81B3877F81BB81B38F7E81BBD5
:1005100081B38E7F81BB81B38D7F81BB84B38D7F9F
:1005200084BB84B38E7F84BB0E940C028AB3846038
:100530008ABB80E482BB789484E089BF1FBC0E94A0
:10054000A401009164001091650020916600309133
:10055000670040916000509161006091620070916D
:100560006300809168000E9460010E945C0249E67D
:1005700050E060E080E00E94400248E750E060E028
:1005800081E00E9440020E9424016D8B7E8B8F8B44
:10059000988F83B38270282F30E03A8F298F4AE0FA
:1005A000BE016F5F7F4FC9010E940B06AE014F5F16
:1005B0005F4F6CE081E00E9440023FE986E891E0F5
:1005C000315080409040E1F700C0000002C10E941D
:1005D0005C0241E850E060E080E00E94400246E8B2
:1005E00050E060E081E00E94400280E00E94A901AA
:1005F000BC0180E090E00E94340527ED33EA40E042
:1006000050E40E948C040E94FE04DC01CB011C011A
:100610004AE08E010F5F1F4FB8010E940B06F801E0
:1006200001900020E9F7319783E490E09183808383
:10063000A80164E081E00E94400280B380FB88242E
:1006400080F8912C4AE0B801C4010E940B06A80171
:100650006EE080E00E94400280B38270C82ED12CF0
:100660004AE0B801C6010E940B06A8016FE080E0D5
:100670000E9440020E9424012B013C015E012BE0FC
:10068000A20EB11C850122E043E00E94EB05F501BA
:1006900001900020E9F7319780E29BE69183808307
:1006A00087E690E093838283A50164E080E00E9466
:1006B000400283B383B380FBEE24E0F8F12C3FE1EA
:1006C000231631046CF020E030E040EF51E4C30128
:1006D000B2010E94E60518161CF484E082BB04C037
:1006E00012BA02C080E282BB83990DC020E030E0E4
:1006F00040EF51E4C301B2010E94E605181694F3DD
:1007000002C080E882BB84990AC020E030E040EF5C
:1007100051E4C301B2010E94E605181694F320E0EB
:1007200030E040EF51E4C301B2010E94E605181623
:100730001CF484E08BBB01C01BBA18141904B4F07C
:1007400020E030E040EF51E4C301B2010E94E60531
:10075000181664F480E285BB8FE39DE023E08150AE
:1007600090402040E1F700C0000001C015BA1C1401
:100770001D04B4F020E030E040EF51E4C301B201C9
:100780000E94E605181664F480E485BB3FE38DE023
:1007900093E0315080409040E1F700C000000DC070
:1007A00015BA0BC080E282BB2FE73AE186E0215008
:1007B00030408040E1F700C000001E141F0494F395
:1007C0009FE926E831E0915020403040E1F700C039
:1007D0000000898D9A8D18161906FCF420E030E08F
:1007E00040EF51E46D897E898F89988D0E94E605DE
:1007F00018160CF4ECCE11C09FE72DE83BE59150A4
:1008000020403040E1F700C000000E945C024CE84C
:1008100050E060E080E00E94400220E030E040EFE5
:1008200051E46D897E898F89988D0E948704882381
:100830001CF39BCE5058BB27AA270E9432040C946D
:10084000AC050E949E0538F00E94A50520F039F401
:100850009F3F19F426F40C949B050EF4E095E7FBFA
:100860000C949505E92F0E94BD0558F3BA1762074D
:1008700073078407950720F079F4A6F50C94DF053B
:100880000EF4E0950B2EBA2FA02D0B01B9019001AB
:100890000C01CA01A0011124FF27591B99F0593FEF
:1008A00050F4503E68F11A16F040A22F232F342F37
:1008B0004427585FF3CF469537952795A795F04085
:1008C0005395C9F77EF41F16BA0B620B730B840B9A
:1008D000BAF09150A1F0FF0FBB1F661F771F881F52
:1008E000C2F70EC0BA0F621F731F841F48F48795AA
:1008F00077956795B795F7959E3F08F0B0CF93959C
:10090000880F08F09927EE0F9795879508950E9414
:10091000710508F481E008950E94A0040C94AC05D0
:100920000E94A50558F00E949E0540F029F45F3F03
:1009300029F00C94950551110C94E0050C949B053D
:100940000E94BD0568F39923B1F3552391F3951BDC
:10095000550BBB27AA2762177307840738F09F5FE0
:100960005F4F220F331F441FAA1FA9F335D00E2E4D
:100970003AF0E0E832D091505040E695001CCAF7BA
:100980002BD0FE2F29D0660F771F881FBB1F26177D
:1009900037074807AB07B0E809F0BB0B802DBF0154
:1009A000FF2793585F4F3AF09E3F510578F00C9423
:1009B00095050C94E0055F3FE4F3983ED4F38695EB
:1009C00077956795B795F7959F5FC9F7880F911D44
:1009D0009695879597F90895E1E0660F771F881F30
:1009E000BB1F621773078407BA0720F0621B730BE3
:1009F000840BBA0BEE1F88F7E09508950E94050559
:100A00006894B1110C94E00508950E94C50588F022
:100A10009F5798F0B92F9927B751B0F0E1F0660FC2
:100A2000771F881F991F1AF0BA95C9F714C0B13003
:100A300091F00E94DF05B1E008950C94DF05672F67
:100A4000782F8827B85F39F0B93FCCF38695779532
:100A50006795B395D9F73EF490958095709561951B
:100A60007F4F8F4F9F4F0895E89409C097FB3EF446
:100A700090958095709561957F4F8F4F9F4F9923EB
:100A8000A9F0F92F96E9BB279395F6958795779569
:100A90006795B795F111F8CFFAF4BB0F11F460FF29
:100AA0001BC06F5F7F4F8F4F9F4F16C0882311F081
:100AB00096E911C0772321F09EE8872F762F05C095
:100AC000662371F096E8862F70E060E02AF09A9530
:100AD000660F771F881FDAF7880F9695879597F925
:100AE0000895990F0008550FAA0BE0E8FEEF1616BF
:100AF0001706E807F907C0F012161306E407F50712
:100B000098F0621B730B840B950B39F40A2661F085
:100B1000232B242B252B21F408950A2609F4A14028
:100B2000A6958FEF811D811D089597F99F6780E835
:100B300070E060E008959FEF80EC089500240A942F
:100B40001616170618060906089500240A941216A8
:100B50001306140605060895092E0394000C11F4DB
:100B6000882352F0BB0F40F4BF2B11F460FF04C088
:100B70006F5F7F4F8F4F9F4F089557FD9058440FE1
:100B8000551F59F05F3F71F04795880F97FB991FEC
:100B900061F09F3F79F087950895121613061406A9
:100BA000551FF2CF4695F1DF08C016161706180636
:100BB000991FF1CF86957105610508940895E89411
:100BC000BB2766277727CB0197F908950E94710507
:100BD00008F48FEF0895EF920F931F93CF93DF9355
:100BE000E80147FD02C034E001C034E1042E000CEE
:100BF000550B57FF03C0519541955109E32E022F24
:100C0000242FAE010E943006CE01DF91CF911F91BB
:100C10000F91EF900895BB274A3031F4992322F4C5
:100C2000BDE2909581959F4F0C941706BB27FB0161
:100C30005527AA27880F991FAA1FA41710F0A41BD5
:100C400083955051B9F7A05DAA3308F0A95DA1932F
:100C5000009779F7B111B1931192CB010C9462080E
:100C6000A9E0B0E0E6E3F6E00C9478086A01122F00
:100C7000B02E2BE3201720F0FF24F394F00E02C0D7
:100C80002CE3F22E0F2D27E0AE014F5F5F4F0E9445
:100C90008A07BC014981842F8970813031F0E1FCE1
:100CA00006C0E0FE06C090E205C09DE203C09BE2E4
:100CB00001C090E05E2D507143FF3CC0911102C015
:100CC00083E001C084E0811718F4212F281B01C0A4
:100CD00020E051110BC0F601822F30E2882319F079
:100CE00031938150FBCFC20ED11C20E0992329F013
:100CF000D6019C93F60131966F01C6010396E2FE80
:100D00000AC03EE4D6013C9341E411964C931197FE
:100D100012963C9306C03EE6F601308341E64183DD
:100D20003283FC01322F40E2332309F442C0419365
:100D30003150FACF42FF44C0911102C083E001C09C
:100D400084E0811718F4212F281B01C020E05111E5
:100D50000BC0F601822F30E2882319F031938150C5
:100D6000FBCFC20ED11C20E0992329F0D6019C9321
:100D7000F60131966F01C6010396E2FE0BC039E41D
:100D8000D6013C933EE411963C93119736E41296BB
:100D90003C9307C039E6F60130833EE6318336E600
:100DA0003283FC01322F40E2332319F0419331505A
:100DB000FBCFFC01E20FF11D10828EEF9FEFA6C06A
:100DC00021E030E0911102C020E030E01616170655
:100DD0001CF4FB01319602C0E1E0F0E02E0F3F1F52
:100DE000BB2021F0EB2DF0E0319602C0E0E0F0E016
:100DF0002E0F3F1FE12FF0E02E173F071CF4121BB0
:100E0000212F01C020E08E2D887159F4F601822F28
:100E100030E2882319F031938150FBCFC20ED11CF0
:100E200020E0992329F0D6019C93F60131966F01B9
:100E300051110BC0F601822F90E3882319F0919392
:100E40008150FBCFC20ED11C20E00F2D060F9A81DE
:100E5000342F307144FF03C0913309F40150101650
:100E600024F4093018F008E001C001E0AB0177FF7D
:100E700002C040E050E0FB01E41BF50BA1E0B0E054
:100E8000AC0FBD1FEA0FFB1F8EE2A82E4B01801A8C
:100E900091080B2D10E01195019511094F3FBFEFFF
:100EA0005B0721F4D601AC9211966D0164177507AA
:100EB0002CF08416950614F4818101C080E3415022
:100EC00051093196D60111967D014017510724F042
:100ED000D6018C936701E2CF6417750739F4963316
:100EE00020F4953319F4311101C081E3F6018083B8
:100EF000F701822F90E2882319F091938150FBCF64
:100F0000F701E20FF11D108280E090E02996ECE0FD
:100F10000C949408283008F027E03327DA01990F61
:100F2000311D87FD916000966105710539F43260CD
:100F30002E5F3D9330E32A95E1F708959F3F30F00F
:100F400080387105610509F03C5F3C5F3D9391304D
:100F500008F08068911DDF93CF931F930F93FF924A
:100F6000EF92192F987F9695E92F96959695E90F10
:100F7000FF27E255FF4F99273327EE24FF24A701CF
:100F8000E70105900894079428F4360FE71EF81E31
:100F9000491F511D660F771F881F991F0694A1F7DF
:100FA0000590079428F4E70EF81E491F561FC11D2F
:100FB000770F881F991F661F0694A1F70590079465
:100FC00028F4F80E491F561FC71FD11D880F991FFF
:100FD000661F771F0694A1F70590079420F4490F28
:100FE000561FC71FD81F990F661F771F881F0694AB
:100FF000A9F784911095177041F0D695C79557952C
:101000004795F794E7941A95C1F7E4E5F0E0689402
:101010001590159135916591959105907FE27395A5
:10102000E118F10A430B560BC90BD009C0F7E10CCC
:10103000F11E431F561FC91FD01D7EF4703311F4DB
:101040008A95E6CFE894015030F0080F0AF40027A3
:10105000021708F4202F2395022F7A3328F079E322
:101060007D932A95E9F710C07D932A9589F6069419
:1010700097956795379517951794E118F10A430BE3
:10108000560BC90BD00998F023957E9173957A334E
:1010900008F070E37C932013B8F77E9170617D9324
:1010A00030F0839571E37D9370E32A95E1F7112485
:1010B000EF90FF900F911F91CF91DF91992787FDBE
:1010C00090950895DC01FC01672F71917723E1F77A
:1010D000329704C07C916D9370836291AE17BF0705
:1010E000C8F308952F923F924F925F926F927F9232
:1010F0008F929F92AF92BF92CF92DF92EF92FF9228
:101100000F931F93CF93DF93CDB7DEB7CA1BDB0BD3
:101110000FB6F894DEBF0FBECDBF09942A88398878
:1011200048885F846E847D848C849B84AA84B9847F
:10113000C884DF80EE80FD800C811B81AA81B9818B
:10114000CE0FD11D0FB6F894DEBF0FBECDBFED019F
:061150000895F894FFCFA2
:1011560033D776467E02800001446F20596F752092
:1011660057616E7420746F0020205374617274206E
:10117600005765693A0054656D3A20004D61636811
:08118600696E65204F4646002A
:00000001FF
