:100000000C942A000C943C000C943C000C943C0092
:100010000C943C000C943C000C943C000C943C0070
:100020000C943C000C943C000C943C000C943C0060
:100030000C943C000C943C000C943C000C943C0050
:100040000C943C000C943C000C943C000C943C0040
:100050000C943C0011241FBECFE5D8E0DEBFCDBF1D
:1000600020E0A0E6B0E001C01D92A436B207E1F79F
:100070000E9499000C9422020C94000084B38160C9
:1000800084BB089585B3816085BB80E58A95F1F7CF
:1000900085B38E7F85BB089580E090E0DC0105C0CC
:1000A00099990AC00196A11DB11D803C27E29207D3
:1000B00029E0A207B105A0F3803C9742A940B10511
:1000C00079F11FBC82E08EBD1DBC1CBC80E090E0BD
:1000D000DC010AC0999B0FC02CB53DB521363A4EC4
:1000E00050F40196A11DB11D803C27E2920729E042
:1000F000A207B10578F3803C9742A940B10599F079
:100100008CB59DB5A0E0B0E01EBC81362AEE92070A
:10011000A105B10558F4B695A795979587950895CB
:100120008FEF9FEF08958EEF9FEF08958EEF9FEF73
:1001300008958FEF87BB8ABB2FEF81EE94E02150AB
:1001400080409040E1F700C000000E943E000E9405
:1001500042000E944C008F3F2FEF9207C1F3BC0179
:1001600080E090E00E94270126E933E44BE05DE364
:100170000E948D0120E030E040E05FE30E948D01AD
:100180000E94F10070936300609362002091600010
:10019000309161002617370791F09B0127543109F0
:1001A0002D31310518F48AE088BB09C0605171090E
:1001B0006633710518F485E088BB01C018BA8091D8
:1001C00062009091630090936100809360008FEFD4
:1001D00096E721E0815090402040E1F700C0000008
:1001E000B6CF0E94F8006894B1110C94870108956D
:1001F0000E946C0188F09F5798F0B92F9927B7514A
:10020000B0F0E1F0660F771F881F991F1AF0BA95BA
:10021000C9F714C0B13091F00E948601B1E0089591
:100220000C948601672F782F8827B85F39F0B93F83
:10023000CCF3869577956795B395D9F73EF490956D
:100240008095709561957F4F8F4F9F4F0895E894EB
:1002500009C097FB3EF490958095709561957F4F0E
:100260008F4F9F4F9923A9F0F92F96E9BB279395BC
:10027000F695879577956795B795F111F8CFFAF4CC
:10028000BB0F11F460FF1BC06F5F7F4F8F4F9F4FFD
:1002900016C0882311F096E911C0772321F09EE85B
:1002A000872F762F05C0662371F096E8862F70E0C1
:1002B00060E02AF09A95660F771F881FDAF7880F9B
:1002C0009695879597F9089557FD9058440F551FB7
:1002D00059F05F3F71F04795880F97FB991F61F0C8
:1002E0009F3F79F087950895121613061406551F3F
:1002F000F2CF4695F1DF08C0161617061806991FAB
:10030000F1CF86957105610508940895E894BB279F
:1003100066277727CB0197F908950E94A0010C94D6
:1003200011020E94030238F00E940A0220F0952375
:1003300011F00C94FA010C94000211240C94870122
:100340000E94640170F3959FC1F3950F50E0551F13
:10035000629FF001729FBB27F00DB11D639FAA271A
:10036000F00DB11DAA1F649F6627B00DA11D661F69
:10037000829F2227B00DA11D621F739FB00DA11D8A
:10038000621F839FA00D611D221F749F3327A00D44
:10039000611D231F849F600D211D822F762F6A2FE0
:1003A00011249F5750409AF0F1F088234AF0EE0F45
:1003B000FF1FBB1F661F771F881F91505040A9F772
:1003C0009E3F510580F00C94FA010C9487015F3F29
:1003D000E4F3983ED4F3869577956795B795F795AE
:1003E000E7959F5FC1F7FE2B880F911D9695879526
:1003F00097F9089597F99F6780E870E060E00895A5
:100400009FEF80EC089500240A941616170618062C
:100410000906089500240A94121613061406050608
:100420000895092E0394000C11F4882352F0BB0F99
:1004300040F4BF2B11F460FF04C06F5F7F4F8F4FFC
:080440009F4F0895F894FFCFCF
:00000001FF
