S00B00005254432E7372656330
S11300000C942A000C9447000C9447000C9447006D
S11300100C9447000C9447000C9447000C94470040
S11300200C9447000C9447000C9447000C94470030
S11300300C9447000C9447000C9447000C94470020
S11300400C9447000C9447000C9447000C94470010
S11300500C94470011241FBECFE5D8E0DEBFCDBF0E
S113006010E0A0E6B0E0E4E2FBE002C005900D92EF
S1130070AC37B107D9F720E0ACE7B0E001C01D927E
S1130080AA38B207E1F70E9487010C9490050C94FA
S1130090000011B880E280B9089594EA96BF06B6CC
S11300A007FEFDCF91B1987F983071F483B984E84D
S11300B086BF06B607FEFDCF81B1887F883131F057
S11300C0803231F482E0089580E0089581E008955B
S11300D083E0089594EA96BF06B607FEFDCF91B17A
S11300E0987F903171F483B984E886BF06B607FE21
S11300F0FDCF81B1887F803431F0803231F482E0E9
S1130100089580E0089581E0089583E0089584E9E6
S113011086BF06B604FCFDCF089583B984E886BF84
S113012006B607FEFDCF81B1887F883221F0803387
S113013021F481E0089580E0089582E0089584EC3C
S113014086BF06B607FEFDCF83B1089584E886BF57
S113015006B607FEFDCF83B108959BB39F70282F89
S1130160207F922B9BBB9BB39E7F9BBB9BB39260D8
S11301709BBB32E03A95F1F700C09BB39D7F9BBBDC
S1130180EFE8F1E03197F1F700C000002BB3F0E1A4
S11301908F9FC0011124922F9F70892B8BBB8BB32F
S11301A082608BBB32E03A95F1F700C08BB38D7F50
S11301B08BBB8FE99FE00197F1F700C00000089521
S11301C09BB39F70282F207F922B9BBB9BB3916086
S11301D09BBB9BB392609BBB32E03A95F1F700C0A6
S11301E09BB39D7F9BBBEFE8F1E03197F1F700C033
S11301F000002BB3F0E18F9FC0011124922F9F7058
S1130200892B8BBB8BB382608BBB32E03A95F1F7C1
S113021000C08BB38D7F8BBB8FE99FE00197F1F713
S113022000C0000008958FEF8ABB8FE39CE901971B
S1130230F1F700C0000082E00E94AD0088E20E9455
S1130240AD008CE00E94AD0086E00E94AD0081E02C
S11302500E94AD008FE99FE00197F1F700C0000014
S113026008950F931F93CF93DF938C01C0E0D0E0E8
S113027003C00E94E0002196F801EC0FFD1F80816D
S11302808111F7CFDF91CF911F910F910895CF93F3
S1130290DF93EA01811108C0603130F4862F8F703A
S11302A080680E94AD0009C0813039F4603128F4BF
S11302B0862F8F70806C0E94AD00CE010E943101A8
S11302C0DF91CF910895CF93C82F80ED0E944D0008
S11302D08C2F0E948D0081ED0E946A000E949F0075
S11302E090E090937F0080937E000E949F0090E0B6
S11302F090938100809380000E94A60090E09093E8
S11303008300809382000E948700CF910895CF9349
S1130310DF93CDB7DEB7CA5AD1090FB6F894DEBF62
S11303200FBECDBF0E9449000E94130187B38860AD
S113033087BB8AB384608ABB81B3816081BB87B386
S11303408E7F87BB80E00E94630180917F008F9342
S113035080917E008F93809181008F9380918000A3
S11303608F9380918200909183008F7199279F933E
S11303708F9300E610E01F930F939E012F5F3F4F72
S113038079013F932F930E94A60280917F008F935F
S113039080917E008F93809181008F938091800063
S11303A08F9380918200909183008F7199279F93FE
S11303B08F931F930F93FF92EF920E94A602A701BF
S11303C060E080E00E94470180917F008F938091DC
S11303D07E008F9301E710E01F930F931F920F2E5F
S11303E0F2E3BF2EF02DBF927E0139E7E30EF11C3C
S11303F0FF92EF920E947602809181008F93809108
S113040080008F931F930F931F92BF926E0187E416
S1130410C80ED11CDF92CF920E9476020FB6F894D8
S1130420DEBF0FBECDBF80918200909183008F719B
S113043099279F938F931F930F931F92BF928E01BF
S11304400B5E1F4F1F930F930E947602C8010E94F8
S11304505002C6010E9450028C01C7010E94500242
S11304600FB6F894DEBF0FBECDBF0E31110559F0A3
S11304700130110509F066CF181619060CF062CF89
S113048005970CF05FCF46E750E060E089E00E94FA
S1130490470188B3886088BB86B382B382BB52CFDE
S11304A0FC0188279927E89421912032E9F3293027
S11304B010F02E30C8F32B3241F02D3239F4689409
S11304C004C00E946E02820F911D219120532A3094
S11304D0C0F31EF4909581959F4F08957AE0979FFD
S11304E0902D879F802D910D11240895AEE0B0E0EA
S11304F0ECE7F2E00C9467050D891E898F89988DCD
S113050026E02C831A83098397FF02C080E090E8D9
S113051001979E838D83AE01455E5F4F698D7A8D11
S1130520CE0101960E94C8024D815E8157FD0AC02A
S11305302F813885421753070CF49A01F801E20F12
S1130540F31F10822E96E4E00C948305AEE0B0E035
S1130550ECEAF2E00C9467050D891E8986E08C8331
S11305601A8309838FEF9FE79E838D83AE01475ED5
S11305705F4F6F89788DCE0101960E94C802EF818A
S1130580F885E00FF11F10822E96E4E00C948305A9
S1130590ABE0B0E0EEECF2E00C9459056C017B01A9
S11305A08A01FC0117821682838181FFCCC1CE01AE
S11305B001963C01F6019381F70193FD859193FF28
S11305C081917F01882309F4BAC1853239F493FDFE
S11305D0859193FF81917F01853229F4B60190E0E2
S11305E00E94BF04E7CF912C212C312CFFE1F3159D
S11305F0D8F08B3279F038F4803279F08332A1F478
S1130600232D20611DC08D3261F0803369F4232DC8
S1130610216016C0832D8260382EE32DE4603E2EC7
S11306202AC0F32DF8601DC037FC2DC020ED280F23
S11306302A3040F08E32B9F436FC81C1232D206477
S1130640322E19C036FE06C08AE0989E200D112471
S1130650922E11C0EAE02E9E200D1124222EF32D9D
S1130660F0623F2E08C08C3621F4832D8068382E2A
S113067002C0883641F4F70193FD859193FF81917F
S11306807F018111B3CF982F9F7D9554933028F427
S11306900C5F1F4F9FE399830DC0833631F083377E
S11306A071F0833509F059C021C0F8018081898334
S11306B00E5F1F4F88248394912C530113C028018B
S11306C0F2E04F0E511CF801A080B18036FE03C049
S11306D0692D70E002C06FEF7FEFC5010E94B40482
S11306E04C018201F32DFF773F2E16C0280122E032
S11306F0420E511CF801A080B18036FE03C0692D62
S113070070E002C06FEF7FEFC5010E94A9044C01A5
S1130710F32DF0683F2E820133FC1BC0822D90E044
S113072088169906B0F4B60180E290E00E94BF04F6
S11307302A94F4CFF50137FC859137FE81915F014E
S1130740B60190E00E94BF0421102A9421E0821A8D
S113075091088114910471F7E8C0843611F0893648
S113076041F5F80137FE07C0608171818281938170
S11307700C5F1F4F08C060817181072E000C880B2D
S1130780990B0E5F1F4FF32DFF763F2E97FF09C085
S113079090958095709561957F4F8F4F9F4FF0682E
S11307A03F2E2AE030E0A3010E94FB04882E861825
S11307B045C0853731F4232D2F7EB22E2AE030E058
S11307C025C0932D997FB92E8F36C1F018F4883542
S11307D079F0B5C0803719F0883721F0B0C0E92F1F
S11307E0E061BE2EB4FE0DC0FB2DF460BF2E09C027
S11307F034FE0AC0292F2660B22E06C028E030E05D
S113080005C020E130E002C020E132E0F801B7FE8B
S113081007C060817181828193810C5F1F4F06C084
S11308206081718180E090E00E5F1F4FA3010E9400
S1130830FB04882E8618FB2DFF773F2E36FE0DC055
S1130840232D2E7FA22E891458F434FE0BC032FCC3
S113085009C0832D8E7EA82E05C0B82CA32C03C0FE
S1130860B82C01C0B92CA4FE0FC0FE01E80DF11D87
S11308708081803321F49A2D997EA92E09C0A2FE8D
S113088006C0B394B39404C08A2D867809F0B39457
S1130890A3FC11C0A0FE06C0B21488F4280C922C4C
S11308A09B180EC0B21460F4B60180E290E00E947E
S11308B0BF04B394F7CFB21418F42B1802C0982CC9
S11308C0212CA4FE10C0B60180E390E00E94BF0476
S11308D0A2FE17C0A1FC03C088E790E002C088E52F
S11308E090E0B6010CC08A2D867859F0A1FE02C0B2
S11308F08BE201C080E2A7FC8DE2B60190E00E9489
S1130900BF04891438F4B60180E390E00E94BF0468
S11309109A94F7CF8A94F301E80DF11D8081B60112
S113092090E00E94BF048110F5CF222009F442CE4A
S1130930B60180E290E00E94BF042A94F6CFF6014B
S11309408681978102C08FEF9FEF2B96E2E10C9492
S11309507505FC010590615070400110D8F7809531
S113096090958E0F9F1F0895FC0161507040019077
S11309700110D8F7809590958E0F9F1F08950F93BF
S11309801F93CF93DF93FB01238121FD03C08FEFDE
S11309909FEF2CC022FF16C04681578124813581E8
S11309A04217530744F4A081B1819D012F5F3F4F4B
S11309B0318320838C93268137812F5F3F4F378388
S11309C0268314C08B01EC01FB010084F185E02D2A
S11309D00995892BE1F6D80116968D919C9117976C
S11309E0019617969C938E931697CE01DF91CF9123
S11309F01F910F910895FA01AA27283051F120314F
S1130A0081F1E8946F936E7F6E5F7F4F8F4F9F4F9E
S1130A10AF4FB1E03ED0B4E03CD0670F781F891FE0
S1130A209A1FA11D680F791F8A1F911DA11D6A0FAE
S1130A30711D811D911DA11D20D009F468943F9161
S1130A402AE0269F11243019305D3193DEF6CF0160
S1130A500895462F4770405D4193B3E00FD0C9F726
S1130A60F6CF462F4F70405D4A3318F0495D31FD93
S1130A704052419302D0A9F7EACFB4E0A6959795E6
S1130A80879577956795BA95C9F7009761057105BC
S1130A9008959B01AC010A2E069457954795379506
S1130AA02795BA95C9F7620F731F841F951FA01D60
S1130AB008952F923F924F925F926F927F928F92FE
S1130AC09F92AF92BF92CF92DF92EF92FF920F93D9
S1130AD01F93CF93DF93CDB7DEB7CA1BDB0B0FB6E3
S1130AE0F894DEBF0FBECDBF09942A8839884888A0
S1130AF05F846E847D848C849B84AA84B984C88436
S1130B00DF80EE80FD800C811B81AA81B981CE0F2C
S1130B10D11D0FB6F894DEBF0FBECDBFED01089511
S1070B20F894FFCF73
S1130B24253032783A253032783A2530327820200C
S10F0B34002530327800416C61726D00C5
S9030000FC
